{
  "_format": "hh-sol-artifact-1",
  "contractName": "GonnaNFT",
  "sourceName": "contracts/GonnaNFT.sol",
  "abi": [
    {
      "inputs": [
        {
          "internalType": "string",
          "name": "name_",
          "type": "string"
        },
        {
          "internalType": "string",
          "name": "symbol_",
          "type": "string"
        },
        {
          "internalType": "string",
          "name": "base_",
          "type": "string"
        },
        {
          "internalType": "string",
          "name": "contractURI_",
          "type": "string"
        }
      ],
      "stateMutability": "nonpayable",
      "type": "constructor"
    },
    {
      "anonymous": false,
      "inputs": [
        {
          "indexed": true,
          "internalType": "address",
          "name": "owner",
          "type": "address"
        },
        {
          "indexed": true,
          "internalType": "address",
          "name": "approved",
          "type": "address"
        },
        {
          "indexed": true,
          "internalType": "uint256",
          "name": "tokenId",
          "type": "uint256"
        }
      ],
      "name": "Approval",
      "type": "event"
    },
    {
      "anonymous": false,
      "inputs": [
        {
          "indexed": true,
          "internalType": "address",
          "name": "owner",
          "type": "address"
        },
        {
          "indexed": true,
          "internalType": "address",
          "name": "operator",
          "type": "address"
        },
        {
          "indexed": false,
          "internalType": "bool",
          "name": "approved",
          "type": "bool"
        }
      ],
      "name": "ApprovalForAll",
      "type": "event"
    },
    {
      "anonymous": false,
      "inputs": [
        {
          "indexed": true,
          "internalType": "address",
          "name": "previousOwner",
          "type": "address"
        },
        {
          "indexed": true,
          "internalType": "address",
          "name": "newOwner",
          "type": "address"
        }
      ],
      "name": "OwnershipTransferred",
      "type": "event"
    },
    {
      "anonymous": false,
      "inputs": [
        {
          "indexed": true,
          "internalType": "address",
          "name": "from",
          "type": "address"
        },
        {
          "indexed": true,
          "internalType": "address",
          "name": "to",
          "type": "address"
        },
        {
          "indexed": true,
          "internalType": "uint256",
          "name": "tokenId",
          "type": "uint256"
        }
      ],
      "name": "Transfer",
      "type": "event"
    },
    {
      "inputs": [
        {
          "internalType": "address",
          "name": "to",
          "type": "address"
        },
        {
          "internalType": "uint256",
          "name": "tokenId",
          "type": "uint256"
        }
      ],
      "name": "approve",
      "outputs": [],
      "stateMutability": "nonpayable",
      "type": "function"
    },
    {
      "inputs": [
        {
          "internalType": "address",
          "name": "owner",
          "type": "address"
        }
      ],
      "name": "balanceOf",
      "outputs": [
        {
          "internalType": "uint256",
          "name": "",
          "type": "uint256"
        }
      ],
      "stateMutability": "view",
      "type": "function"
    },
    {
      "inputs": [],
      "name": "contractURI",
      "outputs": [
        {
          "internalType": "string",
          "name": "",
          "type": "string"
        }
      ],
      "stateMutability": "view",
      "type": "function"
    },
    {
      "inputs": [
        {
          "internalType": "uint256",
          "name": "tokenId",
          "type": "uint256"
        }
      ],
      "name": "getApproved",
      "outputs": [
        {
          "internalType": "address",
          "name": "",
          "type": "address"
        }
      ],
      "stateMutability": "view",
      "type": "function"
    },
    {
      "inputs": [],
      "name": "getLastTokenId",
      "outputs": [
        {
          "internalType": "uint256",
          "name": "",
          "type": "uint256"
        }
      ],
      "stateMutability": "view",
      "type": "function"
    },
    {
      "inputs": [
        {
          "internalType": "address",
          "name": "owner",
          "type": "address"
        },
        {
          "internalType": "address",
          "name": "operator",
          "type": "address"
        }
      ],
      "name": "isApprovedForAll",
      "outputs": [
        {
          "internalType": "bool",
          "name": "",
          "type": "bool"
        }
      ],
      "stateMutability": "view",
      "type": "function"
    },
    {
      "inputs": [
        {
          "internalType": "address",
          "name": "to",
          "type": "address"
        }
      ],
      "name": "mint",
      "outputs": [],
      "stateMutability": "payable",
      "type": "function"
    },
    {
      "inputs": [],
      "name": "name",
      "outputs": [
        {
          "internalType": "string",
          "name": "",
          "type": "string"
        }
      ],
      "stateMutability": "view",
      "type": "function"
    },
    {
      "inputs": [],
      "name": "owner",
      "outputs": [
        {
          "internalType": "address",
          "name": "",
          "type": "address"
        }
      ],
      "stateMutability": "view",
      "type": "function"
    },
    {
      "inputs": [
        {
          "internalType": "address",
          "name": "recipient",
          "type": "address"
        }
      ],
      "name": "ownerMint",
      "outputs": [
        {
          "internalType": "uint256",
          "name": "",
          "type": "uint256"
        }
      ],
      "stateMutability": "nonpayable",
      "type": "function"
    },
    {
      "inputs": [
        {
          "internalType": "uint256",
          "name": "tokenId",
          "type": "uint256"
        }
      ],
      "name": "ownerOf",
      "outputs": [
        {
          "internalType": "address",
          "name": "",
          "type": "address"
        }
      ],
      "stateMutability": "view",
      "type": "function"
    },
    {
      "inputs": [],
      "name": "renounceOwnership",
      "outputs": [],
      "stateMutability": "nonpayable",
      "type": "function"
    },
    {
      "inputs": [
        {
          "internalType": "address",
          "name": "from",
          "type": "address"
        },
        {
          "internalType": "address",
          "name": "to",
          "type": "address"
        },
        {
          "internalType": "uint256",
          "name": "tokenId",
          "type": "uint256"
        }
      ],
      "name": "safeTransferFrom",
      "outputs": [],
      "stateMutability": "nonpayable",
      "type": "function"
    },
    {
      "inputs": [
        {
          "internalType": "address",
          "name": "from",
          "type": "address"
        },
        {
          "internalType": "address",
          "name": "to",
          "type": "address"
        },
        {
          "internalType": "uint256",
          "name": "tokenId",
          "type": "uint256"
        },
        {
          "internalType": "bytes",
          "name": "_data",
          "type": "bytes"
        }
      ],
      "name": "safeTransferFrom",
      "outputs": [],
      "stateMutability": "nonpayable",
      "type": "function"
    },
    {
      "inputs": [
        {
          "internalType": "address",
          "name": "operator",
          "type": "address"
        },
        {
          "internalType": "bool",
          "name": "approved",
          "type": "bool"
        }
      ],
      "name": "setApprovalForAll",
      "outputs": [],
      "stateMutability": "nonpayable",
      "type": "function"
    },
    {
      "inputs": [
        {
          "internalType": "string",
          "name": "baseURI_",
          "type": "string"
        }
      ],
      "name": "setBaseURI",
      "outputs": [],
      "stateMutability": "nonpayable",
      "type": "function"
    },
    {
      "inputs": [
        {
          "internalType": "string",
          "name": "contractURI_",
          "type": "string"
        }
      ],
      "name": "setContractURI",
      "outputs": [],
      "stateMutability": "nonpayable",
      "type": "function"
    },
    {
      "inputs": [
        {
          "internalType": "uint256",
          "name": "price",
          "type": "uint256"
        }
      ],
      "name": "setMintPrice",
      "outputs": [],
      "stateMutability": "nonpayable",
      "type": "function"
    },
    {
      "inputs": [
        {
          "internalType": "bytes4",
          "name": "interfaceId",
          "type": "bytes4"
        }
      ],
      "name": "supportsInterface",
      "outputs": [
        {
          "internalType": "bool",
          "name": "",
          "type": "bool"
        }
      ],
      "stateMutability": "view",
      "type": "function"
    },
    {
      "inputs": [],
      "name": "symbol",
      "outputs": [
        {
          "internalType": "string",
          "name": "",
          "type": "string"
        }
      ],
      "stateMutability": "view",
      "type": "function"
    },
    {
      "inputs": [
        {
          "internalType": "uint256",
          "name": "index",
          "type": "uint256"
        }
      ],
      "name": "tokenByIndex",
      "outputs": [
        {
          "internalType": "uint256",
          "name": "",
          "type": "uint256"
        }
      ],
      "stateMutability": "view",
      "type": "function"
    },
    {
      "inputs": [
        {
          "internalType": "address",
          "name": "owner",
          "type": "address"
        },
        {
          "internalType": "uint256",
          "name": "index",
          "type": "uint256"
        }
      ],
      "name": "tokenOfOwnerByIndex",
      "outputs": [
        {
          "internalType": "uint256",
          "name": "",
          "type": "uint256"
        }
      ],
      "stateMutability": "view",
      "type": "function"
    },
    {
      "inputs": [
        {
          "internalType": "uint256",
          "name": "tokenId",
          "type": "uint256"
        }
      ],
      "name": "tokenURI",
      "outputs": [
        {
          "internalType": "string",
          "name": "",
          "type": "string"
        }
      ],
      "stateMutability": "view",
      "type": "function"
    },
    {
      "inputs": [],
      "name": "totalSupply",
      "outputs": [
        {
          "internalType": "uint256",
          "name": "",
          "type": "uint256"
        }
      ],
      "stateMutability": "view",
      "type": "function"
    },
    {
      "inputs": [
        {
          "internalType": "address",
          "name": "from",
          "type": "address"
        },
        {
          "internalType": "address",
          "name": "to",
          "type": "address"
        },
        {
          "internalType": "uint256",
          "name": "tokenId",
          "type": "uint256"
        }
      ],
      "name": "transferFrom",
      "outputs": [],
      "stateMutability": "nonpayable",
      "type": "function"
    },
    {
      "inputs": [
        {
          "internalType": "address",
          "name": "newOwner",
          "type": "address"
        }
      ],
      "name": "transferOwnership",
      "outputs": [],
      "stateMutability": "nonpayable",
      "type": "function"
    },
    {
      "inputs": [],
      "name": "withdraw",
      "outputs": [],
      "stateMutability": "nonpayable",
      "type": "function"
    }
  ],
  "bytecode": "0x60806040523480156200001157600080fd5b50604051620022e0380380620022e083398101604081905262000034916200026f565b8351849084906200004d90600090602085019062000116565b5080516200006390600190602084019062000116565b505050620000806200007a620000c060201b60201c565b620000c4565b6000600c5560ce600d5581516200009f90600f90602085019062000116565b508051620000b590600e90602084019062000116565b505050505062000376565b3390565b600a80546001600160a01b038381166001600160a01b0319831681179093556040519116919082907f8be0079c531659141344cd1fd0a4f28419497f9722a3daafe3b4186f6b6457e090600090a35050565b828054620001249062000323565b90600052602060002090601f01602090048101928262000148576000855562000193565b82601f106200016357805160ff191683800117855562000193565b8280016001018555821562000193579182015b828111156200019357825182559160200191906001019062000176565b50620001a1929150620001a5565b5090565b5b80821115620001a15760008155600101620001a6565b600082601f830112620001cd578081fd5b81516001600160401b0380821115620001ea57620001ea62000360565b604051601f8301601f19908116603f0116810190828211818310171562000215576200021562000360565b8160405283815260209250868385880101111562000231578485fd5b8491505b8382101562000254578582018301518183018401529082019062000235565b838211156200026557848385830101525b9695505050505050565b6000806000806080858703121562000285578384fd5b84516001600160401b03808211156200029c578586fd5b620002aa88838901620001bc565b95506020870151915080821115620002c0578485fd5b620002ce88838901620001bc565b94506040870151915080821115620002e4578384fd5b620002f288838901620001bc565b9350606087015191508082111562000308578283fd5b506200031787828801620001bc565b91505092959194509250565b600181811c908216806200033857607f821691505b602082108114156200035a57634e487b7160e01b600052602260045260246000fd5b50919050565b634e487b7160e01b600052604160045260246000fd5b611f5a80620003866000396000f3fe60806040526004361061019c5760003560e01c80636a627842116100ec578063a22cb4651161008a578063e8a3d48511610064578063e8a3d48514610476578063e985e9c51461048b578063f2fde38b146104d4578063f4a0a528146104f457600080fd5b8063a22cb46514610416578063b88d4fde14610436578063c87b56dd1461045657600080fd5b806383c4c00d116100c657806383c4c00d146103ae5780638da5cb5b146103c3578063938e3d7b146103e157806395d89b411461040157600080fd5b80636a6278421461036657806370a0823114610379578063715018a61461039957600080fd5b806323b872dd1161015957806342842e0e1161013357806342842e0e146102e65780634f6ccce71461030657806355f804b3146103265780636352211e1461034657600080fd5b806323b872dd146102915780632f745c59146102b15780633ccfd60b146102d157600080fd5b806301ffc9a7146101a157806306fdde03146101d6578063081812fc146101f8578063095ea7b31461023057806318160ddd146102525780631e3bcc8e14610271575b600080fd5b3480156101ad57600080fd5b506101c16101bc366004611bca565b610514565b60405190151581526020015b60405180910390f35b3480156101e257600080fd5b506101eb61053f565b6040516101cd9190611d08565b34801561020457600080fd5b50610218610213366004611c48565b6105d1565b6040516001600160a01b0390911681526020016101cd565b34801561023c57600080fd5b5061025061024b366004611ba1565b61066b565b005b34801561025e57600080fd5b506008545b6040519081526020016101cd565b34801561027d57600080fd5b5061026361028c366004611a67565b610781565b34801561029d57600080fd5b506102506102ac366004611ab3565b6107db565b3480156102bd57600080fd5b506102636102cc366004611ba1565b61080c565b3480156102dd57600080fd5b506102506108a2565b3480156102f257600080fd5b50610250610301366004611ab3565b6108fe565b34801561031257600080fd5b50610263610321366004611c48565b610919565b34801561033257600080fd5b50610250610341366004611c02565b6109ba565b34801561035257600080fd5b50610218610361366004611c48565b6109f7565b610250610374366004611a67565b610a6e565b34801561038557600080fd5b50610263610394366004611a67565b610b67565b3480156103a557600080fd5b50610250610bee565b3480156103ba57600080fd5b50610263610c24565b3480156103cf57600080fd5b50600a546001600160a01b0316610218565b3480156103ed57600080fd5b506102506103fc366004611c02565b610c30565b34801561040d57600080fd5b506101eb610c6d565b34801561042257600080fd5b50610250610431366004611b67565b610c7c565b34801561044257600080fd5b50610250610451366004611aee565b610c87565b34801561046257600080fd5b506101eb610471366004611c48565b610cbf565b34801561048257600080fd5b506101eb610d75565b34801561049757600080fd5b506101c16104a6366004611a81565b6001600160a01b03918216600090815260056020908152604080832093909416825291909152205460ff1690565b3480156104e057600080fd5b506102506104ef366004611a67565b610d84565b34801561050057600080fd5b5061025061050f366004611c48565b610e1f565b60006001600160e01b0319821663780e9d6360e01b1480610539575061053982610e4e565b92915050565b60606000805461054e90611e62565b80601f016020809104026020016040519081016040528092919081815260200182805461057a90611e62565b80156105c75780601f1061059c576101008083540402835291602001916105c7565b820191906000526020600020905b8154815290600101906020018083116105aa57829003601f168201915b5050505050905090565b6000818152600260205260408120546001600160a01b031661064f5760405162461bcd60e51b815260206004820152602c60248201527f4552433732313a20617070726f76656420717565727920666f72206e6f6e657860448201526b34b9ba32b73a103a37b5b2b760a11b60648201526084015b60405180910390fd5b506000908152600460205260409020546001600160a01b031690565b6000610676826109f7565b9050806001600160a01b0316836001600160a01b031614156106e45760405162461bcd60e51b815260206004820152602160248201527f4552433732313a20617070726f76616c20746f2063757272656e74206f776e656044820152603960f91b6064820152608401610646565b336001600160a01b0382161480610700575061070081336104a6565b6107725760405162461bcd60e51b815260206004820152603860248201527f4552433732313a20617070726f76652063616c6c6572206973206e6f74206f7760448201527f6e6572206e6f7220617070726f76656420666f7220616c6c00000000000000006064820152608401610646565b61077c8383610e9e565b505050565b600a546000906001600160a01b031633146107ae5760405162461bcd60e51b815260040161064690611d6d565b6107bc600b80546001019055565b60006107c7600b5490565b90506107d38382610f0c565b90505b919050565b6107e53382610f26565b6108015760405162461bcd60e51b815260040161064690611da2565b61077c83838361101d565b600061081783610b67565b82106108795760405162461bcd60e51b815260206004820152602b60248201527f455243373231456e756d657261626c653a206f776e657220696e646578206f7560448201526a74206f6620626f756e647360a81b6064820152608401610646565b506001600160a01b03919091166000908152600660209081526040808320938352929052205490565b600a546001600160a01b031633146108cc5760405162461bcd60e51b815260040161064690611d6d565b604051339081904780156108fc02916000818181858888f193505050501580156108fa573d6000803e3d6000fd5b5050565b61077c83838360405180602001604052806000815250610c87565b600061092460085490565b82106109875760405162461bcd60e51b815260206004820152602c60248201527f455243373231456e756d657261626c653a20676c6f62616c20696e646578206f60448201526b7574206f6620626f756e647360a01b6064820152608401610646565b600882815481106109a857634e487b7160e01b600052603260045260246000fd5b90600052602060002001549050919050565b600a546001600160a01b031633146109e45760405162461bcd60e51b815260040161064690611d6d565b80516108fa90600f906020840190611941565b6000818152600260205260408120546001600160a01b0316806107d35760405162461bcd60e51b815260206004820152602960248201527f4552433732313a206f776e657220717565727920666f72206e6f6e657869737460448201526832b73a103a37b5b2b760b91b6064820152608401610646565b6000600c5411610aae5760405162461bcd60e51b815260206004820152600b60248201526a1393d517d4d5105495115160aa1b6044820152606401610646565b34600c541115610af55760405162461bcd60e51b8152602060048201526012602482015271494e53554646494349454e545f56414c554560701b6044820152606401610646565b60ce610b00600b5490565b10610b425760405162461bcd60e51b815260206004820152601260248201527113505617d4d55414131657d4915050d2115160721b6044820152606401610646565b610b50600b80546001019055565b6000610b5b600b5490565b90506108fa8282610f0c565b60006001600160a01b038216610bd25760405162461bcd60e51b815260206004820152602a60248201527f4552433732313a2062616c616e636520717565727920666f7220746865207a65604482015269726f206164647265737360b01b6064820152608401610646565b506001600160a01b031660009081526003602052604090205490565b600a546001600160a01b03163314610c185760405162461bcd60e51b815260040161064690611d6d565b610c2260006111c4565b565b600080610539600b5490565b600a546001600160a01b03163314610c5a5760405162461bcd60e51b815260040161064690611d6d565b80516108fa90600e906020840190611941565b60606001805461054e90611e62565b6108fa338383611216565b610c913383610f26565b610cad5760405162461bcd60e51b815260040161064690611da2565b610cb9848484846112e5565b50505050565b6000818152600260205260409020546060906001600160a01b0316610d195760405162461bcd60e51b815260206004820152601060248201526f1253959053125117d513d2d15397d25160821b6044820152606401610646565b6000610d23611318565b90506000815111610d435760405180602001604052806000815250610d6e565b80610d4d84611327565b604051602001610d5e929190611c8c565b6040516020818303038152906040525b9392505050565b6060600e805461054e90611e62565b600a546001600160a01b03163314610dae5760405162461bcd60e51b815260040161064690611d6d565b6001600160a01b038116610e135760405162461bcd60e51b815260206004820152602660248201527f4f776e61626c653a206e6577206f776e657220697320746865207a65726f206160448201526564647265737360d01b6064820152608401610646565b610e1c816111c4565b50565b600a546001600160a01b03163314610e495760405162461bcd60e51b815260040161064690611d6d565b600c55565b60006001600160e01b031982166380ac58cd60e01b1480610e7f57506001600160e01b03198216635b5e139f60e01b145b8061053957506301ffc9a760e01b6001600160e01b0319831614610539565b600081815260046020526040902080546001600160a01b0319166001600160a01b0384169081179091558190610ed3826109f7565b6001600160a01b03167f8c5be1e5ebec7d5bd14f71427d1e84f3dd0314c0f7b2291e5b200ac8c7c3b92560405160405180910390a45050565b6108fa828260405180602001604052806000815250611441565b6000818152600260205260408120546001600160a01b0316610f9f5760405162461bcd60e51b815260206004820152602c60248201527f4552433732313a206f70657261746f7220717565727920666f72206e6f6e657860448201526b34b9ba32b73a103a37b5b2b760a11b6064820152608401610646565b6000610faa836109f7565b9050806001600160a01b0316846001600160a01b03161480610ff157506001600160a01b0380821660009081526005602090815260408083209388168352929052205460ff165b806110155750836001600160a01b031661100a846105d1565b6001600160a01b0316145b949350505050565b826001600160a01b0316611030826109f7565b6001600160a01b0316146110945760405162461bcd60e51b815260206004820152602560248201527f4552433732313a207472616e736665722066726f6d20696e636f72726563742060448201526437bbb732b960d91b6064820152608401610646565b6001600160a01b0382166110f65760405162461bcd60e51b8152602060048201526024808201527f4552433732313a207472616e7366657220746f20746865207a65726f206164646044820152637265737360e01b6064820152608401610646565b611101838383611474565b61110c600082610e9e565b6001600160a01b0383166000908152600360205260408120805460019290611135908490611e1f565b90915550506001600160a01b0382166000908152600360205260408120805460019290611163908490611df3565b909155505060008181526002602052604080822080546001600160a01b0319166001600160a01b0386811691821790925591518493918716917fddf252ad1be2c89b69c2b068fc378daa952ba7f163c4a11628f55a4df523b3ef91a4505050565b600a80546001600160a01b038381166001600160a01b0319831681179093556040519116919082907f8be0079c531659141344cd1fd0a4f28419497f9722a3daafe3b4186f6b6457e090600090a35050565b816001600160a01b0316836001600160a01b031614156112785760405162461bcd60e51b815260206004820152601960248201527f4552433732313a20617070726f766520746f2063616c6c6572000000000000006044820152606401610646565b6001600160a01b03838116600081815260056020908152604080832094871680845294825291829020805460ff191686151590811790915591519182527f17307eab39ab6107e8899845ad3d59bd9653f200f220920489ca2b5937696c31910160405180910390a3505050565b6112f084848461101d565b6112fc8484848461152c565b610cb95760405162461bcd60e51b815260040161064690611d1b565b6060600f805461054e90611e62565b60608161134b5750506040805180820190915260018152600360fc1b602082015290565b8160005b8115611375578061135f81611e9d565b915061136e9050600a83611e0b565b915061134f565b60008167ffffffffffffffff81111561139e57634e487b7160e01b600052604160045260246000fd5b6040519080825280601f01601f1916602001820160405280156113c8576020820181803683370190505b5090505b8415611015576113dd600183611e1f565b91506113ea600a86611eb8565b6113f5906030611df3565b60f81b81838151811061141857634e487b7160e01b600052603260045260246000fd5b60200101906001600160f81b031916908160001a90535061143a600a86611e0b565b94506113cc565b61144b8383611639565b611458600084848461152c565b61077c5760405162461bcd60e51b815260040161064690611d1b565b6001600160a01b0383166114cf576114ca81600880546000838152600960205260408120829055600182018355919091527ff3f7a9fe364faab93b216da50a3214154f22a0a2b415b23a84c8169e8b636ee30155565b6114f2565b816001600160a01b0316836001600160a01b0316146114f2576114f28382611787565b6001600160a01b0382166115095761077c81611824565b826001600160a01b0316826001600160a01b03161461077c5761077c82826118fd565b60006001600160a01b0384163b1561162e57604051630a85bd0160e11b81526001600160a01b0385169063150b7a0290611570903390899088908890600401611ccb565b602060405180830381600087803b15801561158a57600080fd5b505af19250505080156115ba575060408051601f3d908101601f191682019092526115b791810190611be6565b60015b611614573d8080156115e8576040519150601f19603f3d011682016040523d82523d6000602084013e6115ed565b606091505b50805161160c5760405162461bcd60e51b815260040161064690611d1b565b805181602001fd5b6001600160e01b031916630a85bd0160e11b149050611015565b506001949350505050565b6001600160a01b03821661168f5760405162461bcd60e51b815260206004820181905260248201527f4552433732313a206d696e7420746f20746865207a65726f20616464726573736044820152606401610646565b6000818152600260205260409020546001600160a01b0316156116f45760405162461bcd60e51b815260206004820152601c60248201527f4552433732313a20746f6b656e20616c7265616479206d696e746564000000006044820152606401610646565b61170060008383611474565b6001600160a01b0382166000908152600360205260408120805460019290611729908490611df3565b909155505060008181526002602052604080822080546001600160a01b0319166001600160a01b03861690811790915590518392907fddf252ad1be2c89b69c2b068fc378daa952ba7f163c4a11628f55a4df523b3ef908290a45050565b6000600161179484610b67565b61179e9190611e1f565b6000838152600760205260409020549091508082146117f1576001600160a01b03841660009081526006602090815260408083208584528252808320548484528184208190558352600790915290208190555b5060009182526007602090815260408084208490556001600160a01b039094168352600681528383209183525290812055565b60085460009061183690600190611e1f565b6000838152600960205260408120546008805493945090928490811061186c57634e487b7160e01b600052603260045260246000fd5b90600052602060002001549050806008838154811061189b57634e487b7160e01b600052603260045260246000fd5b60009182526020808320909101929092558281526009909152604080822084905585825281205560088054806118e157634e487b7160e01b600052603160045260246000fd5b6001900381819060005260206000200160009055905550505050565b600061190883610b67565b6001600160a01b039093166000908152600660209081526040808320868452825280832085905593825260079052919091209190915550565b82805461194d90611e62565b90600052602060002090601f01602090048101928261196f57600085556119b5565b82601f1061198857805160ff19168380011785556119b5565b828001600101855582156119b5579182015b828111156119b557825182559160200191906001019061199a565b506119c19291506119c5565b5090565b5b808211156119c157600081556001016119c6565b600067ffffffffffffffff808411156119f5576119f5611ef8565b604051601f8501601f19908116603f01168101908282118183101715611a1d57611a1d611ef8565b81604052809350858152868686011115611a3657600080fd5b858560208301376000602087830101525050509392505050565b80356001600160a01b03811681146107d657600080fd5b600060208284031215611a78578081fd5b610d6e82611a50565b60008060408385031215611a93578081fd5b611a9c83611a50565b9150611aaa60208401611a50565b90509250929050565b600080600060608486031215611ac7578081fd5b611ad084611a50565b9250611ade60208501611a50565b9150604084013590509250925092565b60008060008060808587031215611b03578081fd5b611b0c85611a50565b9350611b1a60208601611a50565b925060408501359150606085013567ffffffffffffffff811115611b3c578182fd5b8501601f81018713611b4c578182fd5b611b5b878235602084016119da565b91505092959194509250565b60008060408385031215611b79578182fd5b611b8283611a50565b915060208301358015158114611b96578182fd5b809150509250929050565b60008060408385031215611bb3578182fd5b611bbc83611a50565b946020939093013593505050565b600060208284031215611bdb578081fd5b8135610d6e81611f0e565b600060208284031215611bf7578081fd5b8151610d6e81611f0e565b600060208284031215611c13578081fd5b813567ffffffffffffffff811115611c29578182fd5b8201601f81018413611c39578182fd5b611015848235602084016119da565b600060208284031215611c59578081fd5b5035919050565b60008151808452611c78816020860160208601611e36565b601f01601f19169290920160200192915050565b60008351611c9e818460208801611e36565b835190830190611cb2818360208801611e36565b64173539b7b760d91b9101908152600501949350505050565b6001600160a01b0385811682528416602082015260408101839052608060608201819052600090611cfe90830184611c60565b9695505050505050565b602081526000610d6e6020830184611c60565b60208082526032908201527f4552433732313a207472616e7366657220746f206e6f6e20455243373231526560408201527131b2b4bb32b91034b6b83632b6b2b73a32b960711b606082015260800190565b6020808252818101527f4f776e61626c653a2063616c6c6572206973206e6f7420746865206f776e6572604082015260600190565b60208082526031908201527f4552433732313a207472616e736665722063616c6c6572206973206e6f74206f6040820152701ddb995c881b9bdc88185c1c1c9bdd9959607a1b606082015260800190565b60008219821115611e0657611e06611ecc565b500190565b600082611e1a57611e1a611ee2565b500490565b600082821015611e3157611e31611ecc565b500390565b60005b83811015611e51578181015183820152602001611e39565b83811115610cb95750506000910152565b600181811c90821680611e7657607f821691505b60208210811415611e9757634e487b7160e01b600052602260045260246000fd5b50919050565b6000600019821415611eb157611eb1611ecc565b5060010190565b600082611ec757611ec7611ee2565b500690565b634e487b7160e01b600052601160045260246000fd5b634e487b7160e01b600052601260045260246000fd5b634e487b7160e01b600052604160045260246000fd5b6001600160e01b031981168114610e1c57600080fdfea264697066735822122073efa3bb8f47b49a1fda60b2aa92548cb6393e26be26f9b7222c91cae056001264736f6c63430008040033",
  "linkReferences": {},
  "deployedLinkReferences": {}
}